:100000000C9435000C945D000C945D000C945D0024
:100010000C945D000C945D000C945D000C945D00EC
:100020000C945D000C945D000C945D000C945D00DC
:100030000C945D000C945D000C945D000C945D00CC
:100040000C94C7010C945D000C9437020C941102BF
:100050000C945D000C945D000C945D000C945D00AC
:100060000C945D000C945D00140311241FBECFEFAF
:10007000D8E0DEBFCDBF11E0A0E0B1E0E2E9F6E0FC
:1000800002C005900D92AA32B107D9F721E0AAE289
:10009000B1E001C01D92A03DB207E1F710E0C5E359
:1000A000D0E004C02197FE010E944103C433D10770
:1000B000C9F70E9469020C9447030C9400003FB7F3
:1000C000F8948091CC019091CD01A091CE01B09196
:1000D000CF0126B5A89B05C02F3F19F00196A11DA1
:1000E000B11D3FBFBA2FA92F982F8827BC01CD0182
:1000F000620F711D811D911D42E0660F771F881FE1
:10010000991F4A95D1F708958F929F92AF92BF920F
:10011000CF92DF92EF92FF920E945F004B015C0151
:1001200088EBC82E8BE0D82EE12CF12C0E945F00CA
:10013000681979098A099B09683E73408105910510
:10014000A8F321E0C21AD108E108F10888EE880E70
:1001500083E0981EA11CB11CC114D104E104F10478
:1001600029F7FF90EF90DF90CF90BF90AF909F90D6
:100170008F900895AF92BF92CF92DF92EF92FF924D
:100180000F931F93CF93DF936C017B018B01040FBF
:10019000151FEB015E01AE18BF08C017D10759F05B
:1001A0006991D601ED91FC910190F081E02DC6019D
:1001B0000995892B79F7C501DF91CF911F910F9197
:1001C000FF90EF90DF90CF90BF90AF900895FC012B
:1001D000538D448D252F30E0842F90E0821B930BAC
:1001E000541710F0CF96089501970895FC01918D52
:1001F000828D981761F0A28DAE0FBF2FB11D5D9655
:100200008C91928D9F5F9F73928F90E008958FEFF6
:100210009FEF0895FC01918D828D981731F0828DAA
:10022000E80FF11D858D90E008958FEF9FEF089501
:10023000FC01918D228D892F90E0805C9F4F821B65
:1002400091098F73992708958AE291E00E9418011D
:1002500021E0892B09F420E0822F089580E090E0CE
:10026000892B29F00E94240181110C94000008952B
:10027000FC01A48DA80FB92FB11DA35ABF4F2C911B
:10028000848D90E001968F739927848FA689B78912
:100290002C93A089B1898C91837080648C93938D09
:1002A000848D981306C00288F389E02D80818F7DAC
:1002B00080830895EF92FF920F931F93CF93DF9364
:1002C000EC0181E0888F9B8D8C8D98131AC0E88992
:1002D000F989808185FF15C09FB7F894EE89FF8961
:1002E0006083E889F98980818370806480839FBFFF
:1002F00081E090E0DF91CF911F910F91FF90EF90FF
:100300000895F62E0B8D10E00F5F1F4F0F7311270E
:10031000E02E8C8D8E110CC00FB607FCFACFE88949
:10032000F989808185FFF5CFCE010E943801F1CF98
:10033000EB8DEC0FFD2FF11DE35AFF4FF0829FB7BD
:10034000F8940B8FEA89FB8980818062CFCFCF93AD
:10035000DF93EC01888D8823B9F0AA89BB89E889ED
:10036000F9898C9185FD03C0808186FD0DC00FB693
:1003700007FCF7CF8C9185FFF2CF808185FFEDCF11
:10038000CE010E943801E9CFDF91CF9108951F92ED
:100390000F920FB60F9211242F933F938F939F9339
:1003A000AF93BF938091C8019091C901A091CA01F8
:1003B000B091CB013091C70123E0230F2D3758F5C1
:1003C0000196A11DB11D2093C7018093C801909390
:1003D000C901A093CA01B093CB018091CC01909147
:1003E000CD01A091CE01B091CF010196A11DB11D0B
:1003F0008093CC019093CD01A093CE01B093CF0117
:10040000BF91AF919F918F913F912F910F900FBE10
:100410000F901F90189526E8230F0296A11DB11D7D
:10042000D2CF1F920F920FB60F9211242F933F93AA
:100430004F935F936F937F938F939F93AF93BF93EC
:10044000EF93FF938AE291E00E943801FF91EF91D0
:10045000BF91AF919F918F917F916F915F914F91DC
:100460003F912F910F900FBE0F901F9018951F92E4
:100470000F920FB60F9211242F938F939F93EF93A8
:10048000FF93E0913A01F0913B018081E0914001BE
:10049000F091410182FD1BC09081809143018F5FEB
:1004A0008F7320914401821741F0E0914301F0E005
:1004B000E65DFE4F958F80934301FF91EF919F91F1
:1004C0008F912F910F900FBE0F901F9018958081E4
:1004D000F4CF789484B5826084BD84B5816084BD96
:1004E00085B5826085BD85B5816085BD80916E00D2
:1004F000816080936E001092810080918100826003
:10050000809381008091810081608093810080913F
:1005100080008160809380008091B100846080932E
:10052000B1008091B00081608093B00080917A002A
:10053000846080937A0080917A00826080937A0050
:1005400080917A00816080937A0080917A0080683F
:1005500080937A001092C100E0913A01F0913B0142
:1005600082E08083E0913601F09137011082E091C2
:100570003801F091390180E1808310924201E091CD
:100580003E01F0913F0186E08083E0913C01F091D3
:100590003D01808180618083E0913C01F0913D01CB
:1005A000808188608083E0913C01F0913D018081F1
:1005B00080688083E0913C01F0913D0180818F7DD6
:1005C0008083C0E0D0E046E050E062E171E08AE282
:1005D00091E00E94BA000E94840046E050E06CE086
:1005E00071E08AE291E00E94BA000E94840046E035
:1005F00050E066E071E08AE291E00E94BA000E9459
:10060000840046E050E060E071E08AE291E00E9400
:10061000BA000E9484002097B1F20E94240188232E
:1006200091F20E940000CFCFEAE2F1E01382128241
:1006300088EE93E0A0E0B0E084839583A683B7833F
:100640008CE191E09183808385EC90E095878487AD
:1006500084EC90E09787868780EC90E0918B808B8C
:1006600081EC90E0938B828B82EC90E0958B848B75
:1006700086EC90E0978B868B118E128E138E148EE3
:100680000895EE0FFF1F0590F491E02D0994F89462
:02069000FFCF9A
:100692006406000600006406000200006406000012
:1006A2000001640400000000000000005A01BA00CA
:0A06B200E700A7011801F6000A0195
:00000001FF
